:100000000C942A000C9447000C9447000C94470071
:100010000C9447000C9447000C9447000C94470044
:100020000C9447000C9447000C94EA130C9447007E
:100030000C9447000C9447000C9447000C94470024
:100040000C94B3130C9447000C9447000C94470095
:100050000C94470011241FBECFE5D8E0DEBFCDBF12
:1000600010E0A0E6B0E0EEE9FAE202C005900D92E1
:10007000AC38B107D9F710E0ACE8B0E001C01D9290
:10008000A339B107E1F70E942C140C944D150C9480
:100090000000EF92FF920F931F937B018C0120E0F1
:1000A00030E040E05FE40E94490388238CF0C801FF
:1000B000B70120E030E040E05FE40E94C1010E940F
:1000C000A9039B01AC01205030404040504806C07D
:1000D000C801B7010E94A9039B01AC01B901CA0183
:1000E0001F910F91FF90EF900895A0E0B0E0EBE733
:1000F000F0E00C94D114DC012B01FA019C919230B8
:1001000008F439C1EB018881823008F433C194309E
:1001100069F4843009F02FC111969C91119789815F
:10012000981709F428C1A8E6B0E025C1843009F485
:1001300021C18230A9F4923009F01DC19A01AD01AC
:1001400088E0EA010990AE01E90109929E0181501F
:10015000C1F7E201898111969C918923818308C1AD
:10016000923009F407C112962D903C901397EB0141
:100170008A819B811496AD90BD90CD90DC901797AD
:10018000EC80FD800E811F819101281B390BB90184
:1001900037FF04C066277727621B730B6032710537
:1001A0000CF061C0121613066CF537014801062EDB
:1001B00004C096948794779467940A94D2F721E0C8
:1001C00030E040E050E004C0220F331F441F551FB1
:1001D0006A95D2F721503040404050402E213F21B7
:1001E00040235123211531054105510521F021E01E
:1001F00030E040E050E079018A01E628F72808293C
:1002000019293CC0232BD1F1260E371E350146019A
:10021000062E04C096948794779467940A94D2F734
:1002200021E030E040E050E004C0220F331F441FC3
:10023000551F6A95D2F721503040404050402A2146
:100240003B214C215D21211531054105510521F04E
:1002500021E030E040E050E059016A01A628B728CB
:10026000C828D9280BC0821593052CF01C01AA249C
:10027000BB24650103C0EE24FF24870111969C91E5
:10028000D20111968C91981709F445C0992339F041
:10029000A80197012A193B094C095D0906C0A6016E
:1002A00095012E193F09400B510B57FD08C01182D3
:1002B0003382228224833583468357831DC081E0A5
:1002C00081833382228288279927DC01821B930B4A
:1002D000A40BB50B84839583A683B7830DC0220F2F
:1002E000331F441F551F24833583468357838281E0
:1002F000938101979383828324813581468157813D
:10030000DA01C9010197A109B1098F5F9F4FAF4F72
:10031000BF4328F30BC0918333822282EA0CFB1C7B
:100320000C1D1D1DE482F5820683178383E0808304
:10033000248135814681578157FF1AC0C901AA27F8
:1003400097FDA095BA2F81709070A070B0705695EF
:10035000479537952795822B932BA42BB52B848318
:100360009583A683B7838281938101969383828349
:10037000DF0101C0D201CD01CDB7DEB7E2E10C94BF
:10038000ED14A0E2B0E0E7ECF1E00C94DD14698339
:100390007A838B839C832D833E834F835887E9E048
:1003A000EE2EF12CEC0EFD1ECE010196B7010E943F
:1003B000D2048E010F5E1F4FCE010596B8010E9438
:1003C000D2048A8991E089278A8BC701B801AE01DE
:1003D000475E5F4F0E9475000E94FD03A096E6E015
:1003E0000C94F914A0E2B0E0E8EFF1E00C94DD1415
:1003F00069837A838B839C832D833E834F835887C5
:10040000F9E0EF2EF12CEC0EFD1ECE010196B701A6
:100410000E94D2048E010F5E1F4FCE010596B801D7
:100420000E94D204C701B801AE01475E5F4F0E942F
:1004300075000E94FD03A096E6E00C94F914A0E27A
:10044000B0E0E5E2F2E00C94D11469837A838B8307
:100450009C832D833E834F835887CE010196BE0136
:10046000675F7F4F0E94D204CE010596BE016F5E8A
:100470007F4F0E94D2049985923088F0898982301A
:10048000C8F0943019F4823051F404C0843029F457
:10049000923081F488E690E0C6C0923049F420E0C2
:1004A0009A858A89981321E02A87CE010996BBC0D4
:1004B000823049F420E09A858A89981321E02A8BBA
:1004C000CE014196B0C02D843E844F8458886D88FB
:1004D0007E888F88988CEE24FF248701AA24BB2471
:1004E000650140E050E060E070E0E0E0F0E0C10174
:1004F00081709070892BE9F0E60CF71C081D191D1E
:100500009A01AB012A0D3B1D4C1D5D1D80E090E062
:10051000A0E0B0E0E614F7040805190520F481E036
:1005200090E0A0E0B0E0BA01A901480F591F6A1F8E
:100530007B1FAA0CBB1CCC1CDD1C97FE08C081E0F5
:1005400090E0A0E0B0E0A82AB92ACA2ADB2A3196B6
:10055000E032F10549F0660C771C881C991C569412
:10056000479437942794C3CFFA85EA892B893C892D
:100570008B859C85280F391F2E5F3F4F17C0CA01FE
:1005800081709070892B61F016950795F794E79428
:1005900080E090E0A0E0B0E8E82AF92A0A2B1B2BC3
:1005A00076956795579547952F5F3F4F77FDE7CF36
:1005B0000CC0440F551F661F771F17FD4160EE0CDE
:1005C000FF1C001F111F21503040403090E05907A0
:1005D00090E0690790E4790760F32B8F3C8FDB0193
:1005E000CA018F779070A070B07080349105A1051A
:1005F000B10561F447FD0AC0E114F10401051105DC
:1006000029F0405C5F4F6F4F7F4F40781A8EFE1786
:1006100011F081E08A8F4D8F5E8F6F8F78A383E01A
:10062000898FCE0149960E94FD03A096E2E10C94C9
:10063000ED14A8E1B0E0EFE1F3E00C94DD14698380
:100640007A838B839C832D833E834F83588789E0F5
:10065000E82EF12CEC0EFD1ECE010196B7010E9492
:10066000D2048E010F5E1F4FCE010596B8010E9485
:10067000D2048985823040F08989823028F0C70110
:10068000B8010E944A0501C08FEF6896E6E00C941D
:10069000F914A8E1B0E0EFE4F3E00C94DD14698311
:1006A0007A838B839C832D833E834F83588789E095
:1006B000E82EF12CEC0EFD1ECE010196B7010E9432
:1006C000D2048E010F5E1F4FCE010596B8010E9425
:1006D000D2048985823040F08989823028F0C701B0
:1006E000B8010E944A0501C08FEF6896E6E00C94BD
:1006F000F914A8E1B0E0EFE7F3E00C94DD146983AE
:100700007A838B839C832D833E834F83588789E034
:10071000E82EF12CEC0EFD1ECE010196B7010E94D1
:10072000D2048E010F5E1F4FCE010596B8010E94C4
:10073000D2048985823040F08989823028F0C7014F
:10074000B8010E944A0501C081E06896E6E00C9479
:10075000F914ACE0B0E0EFEAF3E00C94E114698343
:100760007A838B839C83CE010196BE016B5F7F4FA2
:100770000E94D2048D81823061F1823050F1843048
:1007800021F48E81882351F12EC02F81388537FDC9
:1007900020C06E812F3131051CF06623F9F023C093
:1007A0008EE190E0821B930B29853A854B855C8511
:1007B00004C056954795379527958A95D2F76623B5
:1007C000B1F050954095309521953F4F4F4F5F4F79
:1007D0000EC020E030E040E050E009C02FEF3FEFD6
:1007E0004FEF5FE704C020E030E040E050E8B9019F
:1007F000CA012C96E2E00C94FD14DF92EF92FF9276
:100800000F931F93FC01E480F58006811781D1804E
:100810008081823048F480E090E0A0E1B0E0E82AF6
:10082000F92A0A2B1B2BA5C0843009F49FC0823003
:1008300021F4EE24FF24870105C0E114F104010531
:10084000110519F4E0E0F0E096C0628173819FEF3A
:10085000623879070CF05BC022E83FEF261B370BAC
:100860002A3131052CF020E030E040E050E02AC091
:10087000B801A701022E04C0769567955795479554
:100880000A94D2F781E090E0A0E0B0E004C0880FC5
:10089000991FAA1FBB1F2A95D2F70197A109B10979
:1008A0008E219F21A023B1230097A105B10521F03E
:1008B00081E090E0A0E0B0E09A01AB01282B392B59
:1008C0004A2B5B2BDA01C9018F779070A070B07052
:1008D00080349105A105B10539F427FF09C0205CDA
:1008E0003F4F4F4F5F4F04C0215C3F4F4F4F5F4F13
:1008F000E0E0F0E02030A0E03A07A0E04A07A0E402
:100900005A0710F0E1E0F0E079018A0127C0603871
:10091000710564F5FB01E158FF4FD801C7018F77DE
:100920009070A070B07080349105A105B10539F4C4
:10093000E7FE0DC080E490E0A0E0B0E004C08FE3EB
:1009400090E0A0E0B0E0E80EF91E0A1F1B1F17FFA1
:1009500005C016950795F794E794319687E01695AC
:100960000795F794E7948A95D1F705C0EE24FF2404
:100970008701EFEFF0E06E2F679566276795902F60
:100980009F77D794DD24D7948E2F8695492F462BB9
:10099000582F5D29B701CA011F910F91FF90EF9069
:1009A000DF900895FC01DB01408151812281622F9B
:1009B0006F7770E0221F2227221F9381892F880FD3
:1009C000822B282F30E0991F9927991F11969C930D
:1009D000119721153105A9F54115510561057105DD
:1009E00011F482E037C082E89FEF13969C938E93B8
:1009F00012979A01AB0167E0220F331F441F551F66
:100A00006A95D1F783E08C930DC0220F331F441FEA
:100A1000551F12968D919C911397019713969C9355
:100A20008E931297203080E0380780E0480780E4FA
:100A3000580758F314962D933D934D935C93179755
:100A400008952F3F310579F4411551056105710570
:100A500019F484E08C93089564FF03C081E08C93C3
:100A600012C01C9210C02F57304013963C932E9307
:100A7000129783E08C9387E0440F551F661F771F02
:100A80008A95D1F7706414964D935D936D937C9322
:100A9000179708951F93DC01FB019C91923008F495
:100AA00047C08081823008F443C0943051F41196DD
:100AB0001C91843099F58181682F70E0611B710968
:100AC0003FC0843021F0923031F48230B9F181811D
:100AD000882389F12DC011961C9111978230F1F075
:100AE00081811817D9F412962D913C911397828128
:100AF00093818217930794F028173907BCF0149656
:100B00008D919D910D90BC91A02D248135814681C0
:100B10005781281739074A075B0718F4112341F05A
:100B20000AC082179307A407B50740F4112319F0F0
:100B300061E070E005C06FEF7FEF02C060E070E041
:100B4000CB011F910895DF93CF9300D00F92CDB7C3
:100B5000DEB79A83898389819A81009709F4A9C0B5
:100B6000E981FA818081833008F0A0C0E981FA81AF
:100B70008081882309F08BC0E981FA8183818823F1
:100B800031F4E981FA81818180938C0047C0E98149
:100B9000FA818381813009F03EC0E981FA81818147
:100BA00080938C00E981FA8181818630B1F4A3E5DC
:100BB000B0E0E3E5F0E0808182608C93A3E5B0E0F3
:100BC000E3E5F0E0808184608C93A3E5B0E0E3E5A9
:100BD000F0E080818E7F8C9321C0E981FA81818150
:100BE0008730B1F4A3E5B0E0E3E5F0E08081816017
:100BF0008C93A3E5B0E0E3E5F0E0808182608C9324
:100C0000A3E5B0E0E3E5F0E0808184608C9306C06A
:100C100081E08B8350C081E08B834DC0E981FA81F4
:100C20008281813001F5A9E5B0E0E9E5F0E080815D
:100C300082608C93A3E5B0E0E3E5F0E0808188601A
:100C40008C93A3E5B0E0E3E5F0E080818F7B8C93AB
:100C500081E080938D00AFE5B0E0EFE5F0E08081CA
:100C600080688C9312C0E981FA818281882351F4D3
:100C7000A9E5B0E0E9E5F0E080818E7F8C931092E9
:100C80008D0003C081E08B8316C01B8214C0E981F4
:100C9000FA818081813041F0E981FA81808182305E
:100CA00019F081E08B8307C01B8205C081E08B8334
:100CB00002C081E08B838B810F900F900F90CF91BA
:100CC000DF910895DF93CF9300D0CDB7DEB789834E
:100CD00089818330D0F489818823A9F4A3E5B0E029
:100CE000E3E5F0E080818E7F8C93A3E5B0E0E3E55F
:100CF000F0E080818D7F8C93A3E5B0E0E3E5F0E048
:100D000080818B7F8C931A8202C081E08A838A81E2
:100D10000F900F90CF91DF910895DF93CF9300D084
:100D200000D000D0CDB7DEB789834A835B836C8364
:100D30007D838981833008F0BAC08A819B81AC8130
:100D4000BD818F3F9105A105B10509F040F4ECE5A7
:100D5000F0E08A8180838981882321F09BC081E033
:100D60008E83A7C080918C008823B1F4A3E5B0E006
:100D7000E3E5F0E080818E7F8C93A3E5B0E0E3E5CE
:100D8000F0E080818D7F8C93A3E5B0E0E3E5F0E0B7
:100D900080818B7F8C937EC080918C008130B1F4F8
:100DA000A3E5B0E0E3E5F0E0808181608C93A3E50A
:100DB000B0E0E3E5F0E080818D7F8C93A3E5B0E0C7
:100DC000E3E5F0E080818B7F8C9364C080918C00A0
:100DD0008230B1F4A3E5B0E0E3E5F0E08081826029
:100DE0008C93A3E5B0E0E3E5F0E080818E7F8C9307
:100DF000A3E5B0E0E3E5F0E080818B7F8C934AC00F
:100E000080918C008330B1F4A3E5B0E0E3E5F0E03D
:100E1000808181608C93A3E5B0E0E3E5F0E0808120
:100E200082608C93A3E5B0E0E3E5F0E080818B7F06
:100E30008C9330C080918C008430B1F4A3E5B0E095
:100E4000E3E5F0E0808184608C93A3E5B0E0E3E526
:100E5000F0E080818D7F8C93A3E5B0E0E3E5F0E0E6
:100E600080818E7F8C9316C080918C00853079F4C0
:100E7000A3E5B0E0E3E5F0E0808185608C93A3E535
:100E8000B0E0E3E5F0E080818D7F8C9303C081E0EA
:100E90008E830FC080918D00882339F080918D0062
:100EA000813019F081E08E8304C01E8202C081E08F
:100EB0008E838E8126960FB6F894DEBF0FBECDBF0F
:100EC000CF91DF910895DF93CF9300D0CDB7DEB7F8
:100ED00089838981833078F48981882329F4E2E544
:100EE000F0E010821A8209C08981813011F41A82DF
:100EF00004C01A8202C081E08A838A810F900F9019
:100F0000CF91DF910895DF93CF9300D000D0CDB77C
:100F1000DEB789837B836A8389818330A8F48981E2
:100F2000882359F4E2E5F0E08081882F90E0EA819F
:100F3000FB81918380831C8209C08981813011F4F7
:100F40001C8204C01C8202C081E08C838C810F90C3
:100F50000F900F900F90CF91DF910895DF93CF9373
:100F600000D00F92CDB7DEB789836A838981843040
:100F700078F48981882F90E0880F991FFC01E4584C
:100F8000FF4F0190F081E02D8A8180831B8202C097
:100F900081E08B838B810F900F900F90CF91DF9129
:100FA0000895DF93CF9300D000D00F92CDB7DEB776
:100FB0008B836C838B81803208F05EC08B81869539
:100FC000869586958A838B81877089838C81813011
:100FD00031F58A81882F90E0880F991FFC01E45831
:100FE000FF4FA081B1818A81882F90E0880F991FDF
:100FF000FC01E458FF4F0190F081E02D8081482FE3
:101000008981282F30E081E090E0022E02C0880F15
:10101000991F0A94E2F7842B8C931D822FC08C8138
:10102000882339F58A81882F90E0880F991FFC0169
:10103000E458FF4FA081B1818A81882F90E0880F0A
:10104000991FFC01E458FF4F0190F081E02D808151
:10105000482F8981282F30E081E090E0022E02C0E5
:10106000880F991F0A94E2F7809584238C931D8240
:1010700005C081E08D8302C081E08D838D810F905A
:101080000F900F900F900F90CF91DF910895DF9305
:10109000CF9300D000D0CDB7DEB789837B836A833E
:1010A0008981843088F48981882F90E0880F991F86
:1010B000FC01EC57FF4F0190F081E02D8081EA8127
:1010C000FB8180831C8202C081E08C838C810F9025
:1010D0000F900F900F90CF91DF910895DF93CF93F2
:1010E00000D000D000D0CDB7DEB78B837D836C837A
:1010F0008B81803290F58B818695869586958A8343
:101100008B81877089838A81882F90E0880F991F4F
:10111000FC01EC57FF4F0190F081E02D8081482FBA
:1011200050E08981282F30E081E090E002C0880FF4
:10113000991F2A95E2F79A01282339238981882F5C
:1011400090E0A90102C0559547958A95E2F7CA013A
:10115000EC81FD8180831E8202C051E05E838E811E
:1011600026960FB6F894DEBF0FBECDBFCF91DF91AC
:101170000895DF93CF9300D00F92CDB7DEB7898368
:101180006A838981843078F48981882F90E0880F80
:10119000991FFC01EC58FF4F0190F081E02D8A81EE
:1011A00080831B8202C081E08B838B810F900F9024
:1011B0000F90CF91DF910895DF93CF9300D000D0AF
:1011C0000F92CDB7DEB78B836C838B81803208F0B2
:1011D0005EC08B818695869586958A838B81877084
:1011E00089838C81813031F58A81882F90E0880F46
:1011F000991FFC01EC58FF4FA081B1818A81882F93
:1012000090E0880F991FFC01EC58FF4F0190F0818E
:10121000E02D8081482F8981282F30E081E090E007
:10122000022E02C0880F991F0A94E2F7842B8C9338
:101230001D822FC08C81882339F58A81882F90E008
:10124000880F991FFC01EC58FF4FA081B1818A8162
:10125000882F90E0880F991FFC01EC58FF4F0190F8
:10126000F081E02D8081482F8981282F30E081E0B6
:1012700090E0022E02C0880F991F0A94E2F7809531
:1012800084238C931D8205C081E08D8302C081E0A0
:101290008D838D810F900F900F900F900F90CF91B5
:1012A000DF910895DF93CF9300D000D0CDB7DEB7A4
:1012B0008B838B81803270F58B81869586958695A0
:1012C0008A838B81877089838A81882F90E0880F39
:1012D000991FFC01EC58FF4FA081B1818A81882FB2
:1012E00090E0880F991FFC01EC58FF4F0190F081AE
:1012F000E02D8081482F8981282F30E081E090E027
:10130000022E02C0880F991F0A94E2F7842B8C9357
:101310001C8202C081E08C838C810F900F900F9013
:101320000F90CF91DF910895DF93CF9300D0CDB789
:10133000DEB79A83898389819A81009709F490C0E6
:10134000E981FA818281883008F08AC0A7E2B0E0A2
:10135000E7E2F0E08081982F9F73E981FA81848130
:10136000892B8C93A7E2B0E0E7E2F0E08081982F30
:101370009F7DE981FA818381892B8C93A7E2B0E07C
:10138000E7E2F0E08081982F907EE981FA81828106
:10139000892B8C93A0E5B0E0E0E5F0E08081982F08
:1013A0009F71E981FA818181892B8C93E981FA818E
:1013B0008681882339F4A6E2B0E0E6E2F0E080819D
:1013C00080628C93E981FA8185818823D9F4A6E231
:1013D000B0E0E6E2F0E08081877F8C93109291008C
:1013E000A6E2B0E0E6E2F0E08081982F987FE98104
:1013F000FA818081892B8C93E981FA81868180939F
:10140000900027C0E981FA818581813011F5AFE52F
:10141000B0E0EFE5F0E0808180688C93A6E2B0E078
:10142000E6E2F0E0808188608C9381E08093910017
:10143000A6E2B0E0E6E2F0E08081982F987FE981B3
:10144000FA818081892B8C93E981FA81868180934E
:101450009000A6E2B0E0E6E2F0E0808180688C9344
:101460000F900F90CF91DF910895DF93CF930F925C
:10147000CDB7DEB78983898187708983A7E2B0E021
:10148000E7E2F0E08081807E8C93A7E2B0E0E7E2C3
:10149000F0E090818981892B8C9380919100882341
:1014A000B9F580919000813009F04DC0A6E2B0E01E
:1014B000E6E2F0E0808180648C93E6E2F0E08081F7
:1014C000882F90E0807190700097B9F3A6E2B0E0A9
:1014D000E6E2F0E0808180618C93E4E2F0E08081DC
:1014E000882F90E090938F0080938E00E5E2F0E0EB
:1014F0008081882F90E0382F222780918E00909154
:101500008F00822B932B90938F0080938E001BC0B3
:10151000809191008130B9F480919000813041F444
:10152000A6E2B0E0E6E2F0E0808180648C930BC03C
:1015300080919000882339F480E04AEF50E060E029
:1015400070E00E948D060F90CF91DF910895DF9398
:10155000CF93CDB7DEB7AAE3B0E0EAE3F0E0808155
:101560008E608C93AAE3B0E0EAE3F0E08081806FC4
:101570008C9382E00E94C80A88E20E94C80A8CE02C
:101580000E94C80A81E00E94C80ACF91DF910895A5
:101590000F931F93DF93CF93CDB7DEB7C356D040E1
:1015A0000FB6F894DEBF0FBECDBFFE01ED59FF4F61
:1015B0008083ABE3B0E0EBE3F0E080818D7F8C9340
:1015C000ABE3B0E0EBE3F0E080818B7F8C93FE0136
:1015D000E15AFF4F80E090E0A0E8BFE38083918371
:1015E000A283B3838E01055A1F4FFE01E15AFF4FBC
:1015F000608171818281938120E030E04AEF54E480
:101600000E941F02DC01CB01F80180839183A28339
:10161000B383FE01E55AFF4F60817181828193811E
:1016200020E030E040E85FE30E947903882344F43F
:10163000FE01E75AFF4F81E090E09183808364C010
:10164000FE01E55AFF4F608171818281938120E024
:101650003FEF4FE757E40E94190318160CF043C000
:10166000FE01E15AFF4F608171818281938120E008
:1016700030E040E251E40E941F02DC01CB018E0108
:10168000075A1F4FBC01CD010E944900DC01CB016C
:10169000F801918380831FC0FE01E95AFF4F88EC57
:1016A00090E091838083FE01E95AFF4F8081918110
:1016B0000197F1F7FE01E95AFF4F91838083DE0124
:1016C000A75ABF4FFE01E75AFF4F808191810197D2
:1016D00011969C938E93FE01E75AFF4F8081918172
:1016E0000097D1F627C08E01075A1F4FFE01E55A19
:1016F000FF4F60817181828193810E944900DC01EA
:10170000CB01F80191838083DE01AB5ABF4FFE010C
:10171000E75AFF4F808191818D939C93FE01EB5A94
:10172000FF4F808191810197F1F7FE01EB5AFF4F46
:1017300091838083ABE3B0E0EBE3F0E080818860ED
:101740008C93FE01EF5AFF4F80E090E0A0E8BFE3EA
:1017500080839183A283B3838E01035B1F4FFE01BD
:10176000EF5AFF4F608171818281938120E030E0E8
:101770004AEF54E40E941F02DC01CB01F801808390
:101780009183A283B383FE01E35BFF4F608171818C
:101790008281938120E030E040E85FE30E9479039A
:1017A000882344F4FE01E55BFF4F81E090E09183E4
:1017B000808364C0FE01E35BFF4F608171818281A1
:1017C000938120E03FEF4FE757E40E94190318167A
:1017D0000CF043C0FE01EF5AFF4F6081718182819E
:1017E000938120E030E040E251E40E941F02DC01DE
:1017F000CB018E01055B1F4FBC01CD010E9449004A
:10180000DC01CB01F801918380831FC0FE01E75BFF
:10181000FF4F88EC90E091838083FE01E75BFF4FF0
:10182000808191810197F1F7FE01E75BFF4F918382
:101830008083DE01A55BBF4FFE01E55BFF4F80812A
:101840009181019711969C938E93FE01E55BFF4F6A
:10185000808191810097D1F627C08E01055B1F4FD3
:10186000FE01E35BFF4F60817181828193810E9461
:101870004900DC01CB01F80191838083DE01A95B83
:10188000BF4FFE01E55BFF4F808191818D939C935B
:10189000FE01E95BFF4F808191810197F1F7FE0125
:1018A000E95BFF4F91838083ABE3B0E0EBE3F0E0D3
:1018B0008081982F9F70FE01ED59FF4F8081807FBE
:1018C000892B8C93FE01ED5BFF4F80E090E0A0E858
:1018D000BFE380839183A283B3838E01015C1F4F9A
:1018E000FE01ED5BFF4F608171818281938120E079
:1018F00030E04AEF54E40E941F02DC01CB01F80102
:1019000080839183A283B383FE01FF9660817181FE
:101910008281938120E030E040E85FE30E94790318
:1019200088232CF481E090E09EAF8DAF46C0FE018D
:10193000FF96608171818281938120E03FEF4FE7C4
:1019400057E40E941903181664F5FE01ED5BFF4F82
:10195000608171818281938120E030E040E251E436
:101960000E941F02DC01CB01BC01CD010E94490095
:10197000DC01CB019EAF8DAF0FC088EC90E09CAF37
:101980008BAF8BAD9CAD0197F1F79CAF8BAF8DAD5D
:101990009EAD01979EAF8DAF8DAD9EAD009769F75F
:1019A00016C0FE01FF9660817181828193810E9441
:1019B0004900DC01CB019EAF8DAF8DAD9EAD9AAFDE
:1019C00089AF89AD9AAD0197F1F79AAF89AFABE3D3
:1019D000B0E0EBE3F0E08081877F8C9380E090E0E3
:1019E000A0E8BFE38DAB9EABAFABB8AF6DA97EA94E
:1019F0008FA998AD20E030E04AEF54E40E941F0226
:101A0000DC01CB0189AB9AABABABBCAB69A97AA9C2
:101A10008BA99CA920E030E040E85FE30E947903B5
:101A200088232CF481E090E098AB8FA73FC069A990
:101A30007AA98BA99CA920E03FEF4FE757E40E94C9
:101A4000190318164CF56DA97EA98FA998AD20E051
:101A500030E040E251E40E941F02DC01CB01BC01F6
:101A6000CD010E944900DC01CB0198AB8FA70FC0CC
:101A700088EC90E09EA78DA78DA59EA50197F1F714
:101A80009EA78DA78FA598A9019798AB8FA78FA523
:101A900098A9009769F714C069A97AA98BA99CA98C
:101AA0000E944900DC01CB0198AB8FA78FA598A9B4
:101AB0009CA78BA78BA59CA50197F1F79CA78BA74B
:101AC000ABE3B0E0EBE3F0E0808188608C9380E0F2
:101AD00090E0A0E8BFE38FA398A7A9A7BAA76FA13A
:101AE00078A589A59AA520E030E04AEF54E40E9449
:101AF0001F02DC01CB018BA39CA3ADA3BEA36BA1F2
:101B00007CA18DA19EA120E030E040E85FE30E942F
:101B1000790388232CF481E090E09AA389A33FC045
:101B20006BA17CA18DA19EA120E03FEF4FE757E480
:101B30000E94190318164CF56FA178A589A59AA5DE
:101B400020E030E040E251E40E941F02DC01CB01C2
:101B5000BC01CD010E944900DC01CB019AA389A3FD
:101B60000FC088EC90E098A38F8F8F8D98A101977C
:101B7000F1F798A38F8F89A19AA101979AA389A3BE
:101B800089A19AA1009769F714C06BA17CA18DA1CE
:101B90009EA10E944900DC01CB019AA389A389A1DF
:101BA0009AA19E8F8D8F8D8D9E8D0197F1F79E8FBF
:101BB0008D8FABE3B0E0EBE3F0E08081282F2F7056
:101BC000FE01ED59FF4F8081882F90E0829592951C
:101BD000907F9827807F9827822B8C9380E090E0DD
:101BE000A0E8BFE3898F9A8FAB8FBC8F698D7A8D08
:101BF0008B8D9C8D20E030E04AEF54E40E941F0260
:101C0000DC01CB018D8B9E8BAF8BB88F6D897E896C
:101C10008F89988D20E030E040E85FE30E947903EF
:101C200088232CF481E090E09C8B8B8B3FC06D89E6
:101C30007E898F89988D20E03FEF4FE757E40E941F
:101C4000190318164CF5698D7A8D8B8D9C8D20E0CB
:101C500030E040E251E40E941F02DC01CB01BC01F4
:101C6000CD010E944900DC01CB019C8B8B8B0FC006
:101C700088EC90E09A8B898B89899A890197F1F792
:101C80009A8B898B8B899C8901979C8B8B8B8B89F9
:101C90009C89009769F714C06D897E898F89988D1A
:101CA0000E944900DC01CB019C8B8B8B8B899C892A
:101CB000988B8F878F8598890197F1F7988B8F87FD
:101CC000ABE3B0E0EBE3F0E08081877F8C9380E0D2
:101CD00090E0A0E8BFE38B879C87AD87BE876B85CC
:101CE0007C858D859E8520E030E04AEF54E40E949B
:101CF0001F02DC01CB018F839887A987BA876F8188
:101D0000788589859A8520E030E040E85FE30E948D
:101D1000790388232CF481E090E09E838D833FC07B
:101D20006F81788589859A8520E03FEF4FE757E4FA
:101D30000E94190318164CF56B857C858D859E8550
:101D400020E030E040E251E40E941F02DC01CB01C0
:101D5000BC01CD010E944900DC01CB019E838D8333
:101D60000FC088EC90E09C838B838B819C810197D2
:101D7000F1F79C838B838D819E8101979E838D8358
:101D80008D819E81009769F714C06F817885898560
:101D90009A850E944900DC01CB019E838D838D8151
:101DA0009E819A83898389819A810197F1F79A8329
:101DB0008983CD59DF4F0FB6F894DEBF0FBECDBF7C
:101DC000CF91DF911F910F9108950F931F93DF9390
:101DD000CF93CDB7DEB7C356D0400FB6F894DEBF71
:101DE0000FBECDBFFE01ED59FF4F8083ABE3B0E0E6
:101DF000EBE3F0E0808182608C93ABE3B0E0EBE357
:101E0000F0E080818B7F8C93FE01E15AFF4F80E0F0
:101E100090E0A0E8BFE380839183A283B3838E0127
:101E2000055A1F4FFE01E15AFF4F60817181828187
:101E3000938120E030E04AEF54E40E941F02DC016D
:101E4000CB01F80180839183A283B383FE01E55A1D
:101E5000FF4F608171818281938120E030E040E812
:101E60005FE30E947903882344F4FE01E75AFF4FA1
:101E700081E090E09183808364C0FE01E55AFF4FCA
:101E8000608171818281938120E03FEF4FE757E4C9
:101E90000E94190318160CF043C0FE01E15AFF4FCF
:101EA000608171818281938120E030E040E251E4E1
:101EB0000E941F02DC01CB018E01075A1F4FBC019B
:101EC000CD010E944900DC01CB01F80191838083A0
:101ED0001FC0FE01E95AFF4F88EC90E09183808398
:101EE000FE01E95AFF4F808191810197F1F7FE01D0
:101EF000E95AFF4F91838083DE01A75ABF4FFE014D
:101F0000E75AFF4F80819181019711969C938E93A0
:101F1000FE01E75AFF4F808191810097D1F627C0DB
:101F20008E01075A1F4FFE01E55AFF4F60817181F4
:101F3000828193810E944900DC01CB01F8019183E9
:101F40008083DE01AB5ABF4FFE01E75AFF4F80810D
:101F500091818D939C93FE01EB5AFF4F808191817B
:101F60000197F1F7FE01EB5AFF4F91838083ABE3BA
:101F7000B0E0EBE3F0E0808188608C93FE01EF5AE3
:101F8000FF4F80E090E0A0E8BFE380839183A283CD
:101F9000B3838E01035B1F4FFE01EF5AFF4F608139
:101FA00071818281938120E030E04AEF54E40E9405
:101FB0001F02DC01CB01F80180839183A283B383EC
:101FC000FE01E35BFF4F608171818281938120E09C
:101FD00030E040E85FE30E947903882344F4FE0187
:101FE000E55BFF4F81E090E09183808364C0FE0158
:101FF000E35BFF4F608171818281938120E03FEF3D
:102000004FE757E40E94190318160CF043C0FE0175
:10201000EF5AFF4F608171818281938120E030E02F
:1020200040E251E40E941F02DC01CB018E01055BFE
:102030001F4FBC01CD010E944900DC01CB01F8011A
:10204000918380831FC0FE01E75BFF4F88EC90E027
:1020500091838083FE01E75BFF4F8081918101972F
:10206000F1F7FE01E75BFF4F91838083DE01A55B03
:10207000BF4FFE01E55BFF4F808191810197119673
:102080009C938E93FE01E55BFF4F808191810097C9
:10209000D1F627C08E01055B1F4FFE01E35BFF4FAA
:1020A00060817181828193810E944900DC01CB01B2
:1020B000F80191838083DE01A95BBF4FFE01E55BE0
:1020C000FF4F808191818D939C93FE01E95BFF4FCF
:1020D000808191810197F1F7FE01E95BFF4F9183C8
:1020E0008083ABE3B0E0EBE3F0E08081982F9F705A
:1020F000FE01ED59FF4F8081807F892B8C93FE017B
:10210000ED5BFF4F80E090E0A0E8BFE38083918328
:10211000A283B3838E01015C1F4FFE01ED5BFF4F75
:10212000608171818281938120E030E04AEF54E444
:102130000E941F02DC01CB01F80180839183A283FE
:10214000B383FE01FF96608171818281938120E0DB
:1021500030E040E85FE30E94790388232CF481E0BB
:1021600090E09EAF8DAF46C0FE01FF966081718109
:102170008281938120E03FEF4FE757E40E941903EB
:10218000181664F5FE01ED5BFF4F6081718182815D
:10219000938120E030E040E251E40E941F02DC0124
:1021A000CB01BC01CD010E944900DC01CB019EAFF7
:1021B0008DAF0FC088EC90E09CAF8BAF8BAD9CAD2A
:1021C0000197F1F79CAF8BAF8DAD9EAD01979EAFA0
:1021D0008DAF8DAD9EAD009769F716C0FE01FF96DD
:1021E00060817181828193810E944900DC01CB0171
:1021F0009EAF8DAF8DAD9EAD9AAF89AF89AD9AADD3
:102200000197F1F79AAF89AFABE3B0E0EBE3F0E011
:102210008081877F8C9380E090E0A0E8BFE38DAB66
:102220009EABAFABB8AF6DA97EA98FA998AD20E0EA
:1022300030E04AEF54E40E941F02DC01CB0189AB7D
:102240009AABABABBCAB69A97AA98BA99CA920E0DE
:1022500030E040E85FE30E94790388232CF481E0BA
:1022600090E098AB8FA73FC069A97AA98BA99CA9D8
:1022700020E03FEF4FE757E40E94190318164CF592
:102280006DA97EA98FA998AD20E030E040E251E42D
:102290000E941F02DC01CB01BC01CD010E9449005C
:1022A000DC01CB0198AB8FA70FC088EC90E09EA714
:1022B0008DA78DA59EA50197F1F79EA78DA78FA548
:1022C00098A9019798AB8FA78FA598A9009769F750
:1022D00014C069A97AA98BA99CA90E944900DC01B4
:1022E000CB0198AB8FA78FA598A99CA78BA78BA58F
:1022F0009CA50197F1F79CA78BA7ABE3B0E0EBE3BC
:10230000F0E0808188608C9380E090E0A0E8BFE3FB
:102310008FA398A7A9A7BAA76FA178A589A59AA501
:1023200020E030E04AEF54E40E941F02DC01CB01C0
:102330008BA39CA3ADA3BEA36BA17CA18DA19EA1E9
:1023400020E030E040E85FE30E94790388232CF42A
:1023500081E090E09AA389A33FC06BA17CA18DA1ED
:102360009EA120E03FEF4FE757E40E9419031816A3
:102370004CF56FA178A589A59AA520E030E040E250
:1023800051E40E941F02DC01CB01BC01CD010E947F
:102390004900DC01CB019AA389A30FC088EC90E02F
:1023A00098A38F8F8F8D98A10197F1F798A38F8FA6
:1023B00089A19AA101979AA389A389A19AA10097BB
:1023C00069F714C06BA17CA18DA19EA10E94490058
:1023D000DC01CB019AA389A389A19AA19E8F8D8F3D
:1023E0008D8D9E8D0197F1F79E8F8D8FABE3B0E0C1
:1023F000EBE3F0E08081282F2F70FE01ED59FF4FB5
:102400008081882F90E082959295907F9827807F99
:102410009827822B8C9380E090E0A0E8BFE3898F1F
:102420009A8FAB8FBC8F698D7A8D8B8D9C8D20E0C0
:1024300030E04AEF54E40E941F02DC01CB018D8B97
:102440009E8BAF8BB88F6D897E898F89988D20E0A8
:1024500030E040E85FE30E94790388232CF481E0B8
:1024600090E09C8B8B8B3FC06D897E898F89988D86
:1024700020E03FEF4FE757E40E94190318164CF590
:10248000698D7A8D8B8D9C8D20E030E040E251E4A7
:102490000E941F02DC01CB01BC01CD010E9449005A
:1024A000DC01CB019C8B8B8B0FC088EC90E09A8B6E
:1024B000898B89899A890197F1F79A8B898B8B8906
:1024C0009C8901979C8B8B8B8B899C89009769F7E2
:1024D00014C06D897E898F89988D0E944900DC0126
:1024E000CB019C8B8B8B8B899C89988B8F878F855D
:1024F00098890197F1F7988B8F87ABE3B0E0EBE316
:10250000F0E08081877F8C9380E090E0A0E8BFE3DB
:102510008B879C87AD87BE876B857C858D859E85E7
:1025200020E030E04AEF54E40E941F02DC01CB01BE
:102530008F839887A987BA876F81788589859A85DF
:1025400020E030E040E85FE30E94790388232CF428
:1025500081E090E09E838D833FC06F81788589857F
:102560009A8520E03FEF4FE757E40E9419031816C1
:102570004CF56B857C858D859E8520E030E040E2C2
:1025800051E40E941F02DC01CB01BC01CD010E947D
:102590004900DC01CB019E838D830FC088EC90E065
:1025A0009C838B838B819C810197F1F79C838B8328
:1025B0008D819E8101979E838D838D819E81009761
:1025C00069F714C06F81788589859A850E944900D2
:1025D000DC01CB019E838D838D819E819A838983CB
:1025E00089819A810197F1F79A838983CD59DF4FC9
:1025F0000FB6F894DEBF0FBECDBFCF91DF911F9114
:102600000F910895DF93CF9300D00F92CDB7DEB72F
:102610009B838A8319820EC08981282F30E08A81AA
:102620009B81FC01E20FF31F80810E94E50E8981EE
:102630008F5F89838981282F30E08A819B81FC010B
:10264000E20FF31F8081882339F70F900F900F90CE
:10265000CF91DF910895DF93CF9300D000D00F92F8
:10266000CDB7DEB78A836B838A81282F30E03D8324
:102670002C838C819D8181309105C1F02C813D811D
:10268000223031052CF48C819D81009761F019C0B6
:102690002C813D812230310569F08C819D81833010
:1026A000910561F00EC08B8189830BC08B81805CAA
:1026B000898307C08B81805F898303C08B81805BA6
:1026C0008983898180680E94C80A0F900F900F90BB
:1026D0000F900F90CF91DF910895DF93CF9300D0AB
:1026E00000D0CDB7DEB789836A835C834B83898151
:1026F0006A810E942B138B819C810E9402130F9090
:102700000F900F900F90CF91DF910895DF93CF93AB
:10271000CDB7DEB762970FB6F894DEBF0FBECDBF60
:102720009A8B898B89899A899E012F5F3F4FB901C6
:102730004AE050E00E940815CE0101960E94021363
:1027400062960FB6F894DEBF0FBECDBFCF91DF917A
:102750000895DF93CF93CDB7DEB781E00E94C80A1A
:10276000CF91DF9108951F920F920FB60F9211240F
:102770002F933F938F939F93EF93FF93DF93CF9389
:10278000CDB7DEB7E4E2F0E08081882F90E090934F
:102790008F0080938E00E5E2F0E08081882F90E04A
:1027A000982F88279C0180918E0090918F00822B1A
:1027B000932B90938F0080938E00CF91DF91FF91A8
:1027C000EF919F918F913F912F910F900FBE0F909E
:1027D0001F9018951F920F920FB60F9211242F93EE
:1027E0003F938F939F93EF93FF93DF93CF93CDB757
:1027F000DEB7809192008F5F80939200809192006B
:102800008F31E9F4E4E2F0E08081882F90E090934A
:102810008F0080938E00E5E2F0E08081882F90E0C9
:10282000982F88279C0180918E0090918F00822B99
:10283000932B90938F0080938E0010929200CF91F3
:10284000DF91FF91EF919F918F913F912F910F9089
:102850000FBE0F901F901895DF93CF93CDB7DEB7C3
:102860002F970FB6F894DEBF0FBECDBF0E94A70A08
:1028700086E08D8383E08E831F8281E0898781E0FB
:102880008A871B861886CE0105960E9494091C86AD
:1028900081E08E871F8685E08D87CE010C960E9491
:1028A000A3050E94A91380E690E00E94021380E035
:1028B0006AE00E942B1383E40E94E50E80E04AEF59
:1028C00050E060E070E00E948D0680E067E00E94CA
:1028D0002B1380E00E94350A80918E0090918F002A
:1028E000CC01A0E0B0E02CED35E040E050E0BC01D0
:1028F000CD010E949014DC01CB012DEF3BE040E0C4
:1029000050E0BC01CD010E94AF14DA01C9018983F6
:102910009A83AB83BC8389819A810E948613D5CF29
:10292000629FD001739FF001829FE00DF11D649FB3
:10293000E00DF11D929FF00D839FF00D749FF00D3F
:10294000659FF00D9927729FB00DE11DF91F639FE0
:10295000B00DE11DF91FBD01CF0111240895A1E2C1
:102960001A2EAA1BBB1BFD010DC0AA1FBB1FEE1F09
:10297000FF1FA217B307E407F50720F0A21BB30B54
:10298000E40BF50B661F771F881F991F1A9469F7D0
:1029900060957095809590959B01AC01BD01CF012C
:1029A00008952F923F924F925F926F927F928F92F3
:1029B0009F92AF92BF92CF92DF92EF92FF920F93CE
:1029C0001F93CF93DF93CDB7DEB7CA1BDB0B0FB6D8
:1029D000F894DEBF0FBECDBF09942A883988488895
:1029E0005F846E847D848C849B84AA84B984C8842B
:1029F000DF80EE80FD800C811B81AA81B981CE0F22
:102A0000D11D0FB6F894DEBF0FBECDBFED01089506
:102A1000FB019F01E8944230C4F04532B4F44A30DF
:102A200029F497FB1EF4909581959F4F642F77278B
:102A30000E943915805D8A330CF0895D8193CB014A
:102A40000097A1F716F45DE251931082C9010C942E
:102A50002915DC01FC01672F71917723E1F732978B
:102A600004C07C916D9370836291AE17BF07C8F369
:102A70000895AA1BBB1B51E107C0AA1FBB1FA617C5
:102A8000B70710F0A61BB70B881F991F5A95A9F717
:0E2A900080959095BC01CD010895F894FFCF7C
:102A9E0054656D70203D2000000000000000000015
:102AAE00000501003B003800350032003A003700C7
:0C2ABE00340031003900360033003000D5
:00000001FF
